{
  "_format": "hh-sol-artifact-1",
  "contractName": "Poll",
  "sourceName": "contracts/poll.sol",
  "abi": [
    {
      "inputs": [],
      "stateMutability": "nonpayable",
      "type": "constructor"
    },
    {
      "inputs": [],
      "name": "currentStandings",
      "outputs": [
        {
          "internalType": "uint256",
          "name": "",
          "type": "uint256"
        }
      ],
      "stateMutability": "view",
      "type": "function"
    },
    {
      "inputs": [],
      "name": "viewPoint",
      "outputs": [
        {
          "internalType": "string",
          "name": "",
          "type": "string"
        }
      ],
      "stateMutability": "view",
      "type": "function"
    },
    {
      "inputs": [
        {
          "internalType": "bool",
          "name": "_vote",
          "type": "bool"
        }
      ],
      "name": "vote",
      "outputs": [],
      "stateMutability": "nonpayable",
      "type": "function"
    },
    {
      "inputs": [],
      "name": "voteCount",
      "outputs": [
        {
          "internalType": "uint256",
          "name": "",
          "type": "uint256"
        }
      ],
      "stateMutability": "view",
      "type": "function"
    },
    {
      "inputs": [
        {
          "internalType": "uint256",
          "name": "",
          "type": "uint256"
        }
      ],
      "name": "voted",
      "outputs": [
        {
          "internalType": "address",
          "name": "",
          "type": "address"
        }
      ],
      "stateMutability": "view",
      "type": "function"
    },
    {
      "inputs": [
        {
          "internalType": "uint256",
          "name": "",
          "type": "uint256"
        }
      ],
      "name": "votes",
      "outputs": [
        {
          "internalType": "bool",
          "name": "",
          "type": "bool"
        }
      ],
      "stateMutability": "view",
      "type": "function"
    }
  ],
  "bytecode": "0x6080604052600060035534801561001557600080fd5b506040518060400160405280600181526020017f310000000000000000000000000000000000000000000000000000000000000081525060009080519060200190610061929190610067565b50610104565b828054600181600116156101000203166002900490600052602060002090601f016020900481019282601f106100a857805160ff19168380011785556100d6565b828001600101855582156100d6579182015b828111156100d55782518255916020019190600101906100ba565b5b5090506100e391906100e7565b5090565b5b808211156101005760008160009055506001016100e8565b5090565b610547806101136000396000f3fe608060405234801561001057600080fd5b50600436106100625760003560e01c80634b9f5c98146100675780635df81330146100975780638fbb38ff146100db5780639402e6b014610133578063c6384071146101b6578063d2c24f57146101d4575b600080fd5b6100956004803603602081101561007d57600080fd5b810190808035151590602001909291905050506101f2565b005b6100c3600480360360208110156100ad57600080fd5b8101908080359060200190929190505050610330565b60405180821515815260200191505060405180910390f35b610107600480360360208110156100f157600080fd5b8101908080359060200190929190505050610361565b604051808273ffffffffffffffffffffffffffffffffffffffff16815260200191505060405180910390f35b61013b61039d565b6040518080602001828103825283818151815260200191508051906020019080838360005b8381101561017b578082015181840152602081019050610160565b50505050905090810190601f1680156101a85780820380516001836020036101000a031916815260200191505b509250505060405180910390f35b6101be61043b565b6040518082815260200191505060405180910390f35b6101dc610448565b6040518082815260200191505060405180910390f35b6101fb3361046f565b1561026e576040517f08c379a000000000000000000000000000000000000000000000000000000000815260040180806020018281038252600a8152602001807f556e67612062756e67610000000000000000000000000000000000000000000081525060200191505060405180910390fd5b6001339080600181540180825580915050600190039060005260206000200160009091909190916101000a81548173ffffffffffffffffffffffffffffffffffffffff021916908373ffffffffffffffffffffffffffffffffffffffff16021790555060028190806001815401808255809150506001900390600052602060002090602091828204019190069091909190916101000a81548160ff021916908315150217905550801561032d5760016003600082825401925050819055505b50565b6002818154811061033d57fe5b9060005260206000209060209182820401919006915054906101000a900460ff1681565b6001818154811061036e57fe5b906000526020600020016000915054906101000a900473ffffffffffffffffffffffffffffffffffffffff1681565b60008054600181600116156101000203166002900480601f0160208091040260200160405190810160405280929190818152602001828054600181600116156101000203166002900480156104335780601f1061040857610100808354040283529160200191610433565b820191906000526020600020905b81548152906001019060200180831161041657829003601f168201915b505050505081565b6000600180549050905090565b60006064806002805490506064600354028161046057fe5b04028161046957fe5b04905090565b600080600090505b600180549050811015610506578273ffffffffffffffffffffffffffffffffffffffff16600182815481106104a857fe5b9060005260206000200160009054906101000a900473ffffffffffffffffffffffffffffffffffffffff1673ffffffffffffffffffffffffffffffffffffffff1614156104f957600191505061050c565b8080600101915050610477565b50600090505b91905056fea2646970667358221220b56e5e28b9927f882be0f55775034e9cf02f9394c2c9927b2828f2aa0e50f67064736f6c63430007030033",
  "linkReferences": {},
  "deployedLinkReferences": {}
}